{
  "_format": "hh-sol-artifact-1",
  "contractName": "VerifyingPaymaster",
  "sourceName": "contracts/VerifyingPaymaster.sol",
  "abi": [
    {
      "inputs": [
        {
          "internalType": "contract IEntryPoint",
          "name": "_entryPoint",
          "type": "address"
        },
        {
          "internalType": "address",
          "name": "_owner",
          "type": "address"
        }
      ],
      "stateMutability": "nonpayable",
      "type": "constructor"
    },
    {
      "inputs": [
        {
          "internalType": "address",
          "name": "target",
          "type": "address"
        }
      ],
      "name": "AddressEmptyCode",
      "type": "error"
    },
    {
      "inputs": [
        {
          "internalType": "address",
          "name": "account",
          "type": "address"
        }
      ],
      "name": "AddressInsufficientBalance",
      "type": "error"
    },
    {
      "inputs": [],
      "name": "ECDSAInvalidSignature",
      "type": "error"
    },
    {
      "inputs": [
        {
          "internalType": "uint256",
          "name": "length",
          "type": "uint256"
        }
      ],
      "name": "ECDSAInvalidSignatureLength",
      "type": "error"
    },
    {
      "inputs": [
        {
          "internalType": "bytes32",
          "name": "s",
          "type": "bytes32"
        }
      ],
      "name": "ECDSAInvalidSignatureS",
      "type": "error"
    },
    {
      "inputs": [],
      "name": "FailedInnerCall",
      "type": "error"
    },
    {
      "inputs": [
        {
          "internalType": "address",
          "name": "owner",
          "type": "address"
        }
      ],
      "name": "OwnableInvalidOwner",
      "type": "error"
    },
    {
      "inputs": [
        {
          "internalType": "address",
          "name": "account",
          "type": "address"
        }
      ],
      "name": "OwnableUnauthorizedAccount",
      "type": "error"
    },
    {
      "inputs": [
        {
          "internalType": "address",
          "name": "token",
          "type": "address"
        }
      ],
      "name": "SafeERC20FailedOperation",
      "type": "error"
    },
    {
      "anonymous": false,
      "inputs": [
        {
          "indexed": true,
          "internalType": "address",
          "name": "previousOwner",
          "type": "address"
        },
        {
          "indexed": true,
          "internalType": "address",
          "name": "newOwner",
          "type": "address"
        }
      ],
      "name": "OwnershipTransferred",
      "type": "event"
    },
    {
      "inputs": [],
      "name": "POST_OP_GAS",
      "outputs": [
        {
          "internalType": "uint256",
          "name": "",
          "type": "uint256"
        }
      ],
      "stateMutability": "view",
      "type": "function"
    },
    {
      "inputs": [
        {
          "internalType": "uint32",
          "name": "unstakeDelaySec",
          "type": "uint32"
        }
      ],
      "name": "addStake",
      "outputs": [],
      "stateMutability": "payable",
      "type": "function"
    },
    {
      "inputs": [],
      "name": "deposit",
      "outputs": [],
      "stateMutability": "payable",
      "type": "function"
    },
    {
      "inputs": [],
      "name": "entryPoint",
      "outputs": [
        {
          "internalType": "contract IEntryPoint",
          "name": "",
          "type": "address"
        }
      ],
      "stateMutability": "view",
      "type": "function"
    },
    {
      "inputs": [],
      "name": "getDeposit",
      "outputs": [
        {
          "internalType": "uint256",
          "name": "",
          "type": "uint256"
        }
      ],
      "stateMutability": "view",
      "type": "function"
    },
    {
      "inputs": [
        {
          "components": [
            {
              "internalType": "address",
              "name": "sender",
              "type": "address"
            },
            {
              "internalType": "uint256",
              "name": "nonce",
              "type": "uint256"
            },
            {
              "internalType": "bytes",
              "name": "initCode",
              "type": "bytes"
            },
            {
              "internalType": "bytes",
              "name": "callData",
              "type": "bytes"
            },
            {
              "internalType": "bytes32",
              "name": "accountGasLimits",
              "type": "bytes32"
            },
            {
              "internalType": "uint256",
              "name": "preVerificationGas",
              "type": "uint256"
            },
            {
              "internalType": "bytes32",
              "name": "gasFees",
              "type": "bytes32"
            },
            {
              "internalType": "bytes",
              "name": "paymasterAndData",
              "type": "bytes"
            },
            {
              "internalType": "bytes",
              "name": "signature",
              "type": "bytes"
            }
          ],
          "internalType": "struct PackedUserOperation",
          "name": "userOp",
          "type": "tuple"
        },
        {
          "internalType": "uint48",
          "name": "validUntil",
          "type": "uint48"
        },
        {
          "internalType": "uint48",
          "name": "validAfter",
          "type": "uint48"
        },
        {
          "internalType": "address",
          "name": "erc20Token",
          "type": "address"
        },
        {
          "internalType": "uint256",
          "name": "exchangeRate",
          "type": "uint256"
        }
      ],
      "name": "getHash",
      "outputs": [
        {
          "internalType": "bytes32",
          "name": "",
          "type": "bytes32"
        }
      ],
      "stateMutability": "view",
      "type": "function"
    },
    {
      "inputs": [],
      "name": "owner",
      "outputs": [
        {
          "internalType": "address",
          "name": "",
          "type": "address"
        }
      ],
      "stateMutability": "view",
      "type": "function"
    },
    {
      "inputs": [
        {
          "internalType": "bytes",
          "name": "paymasterAndData",
          "type": "bytes"
        }
      ],
      "name": "parsePaymasterAndData",
      "outputs": [
        {
          "internalType": "uint48",
          "name": "validUntil",
          "type": "uint48"
        },
        {
          "internalType": "uint48",
          "name": "validAfter",
          "type": "uint48"
        },
        {
          "internalType": "address",
          "name": "erc20Token",
          "type": "address"
        },
        {
          "internalType": "uint256",
          "name": "exchangeRate",
          "type": "uint256"
        },
        {
          "internalType": "bytes",
          "name": "signature",
          "type": "bytes"
        }
      ],
      "stateMutability": "pure",
      "type": "function"
    },
    {
      "inputs": [
        {
          "internalType": "enum IPaymaster.PostOpMode",
          "name": "mode",
          "type": "uint8"
        },
        {
          "internalType": "bytes",
          "name": "context",
          "type": "bytes"
        },
        {
          "internalType": "uint256",
          "name": "actualGasCost",
          "type": "uint256"
        },
        {
          "internalType": "uint256",
          "name": "actualUserOpFeePerGas",
          "type": "uint256"
        }
      ],
      "name": "postOp",
      "outputs": [],
      "stateMutability": "nonpayable",
      "type": "function"
    },
    {
      "inputs": [],
      "name": "renounceOwnership",
      "outputs": [],
      "stateMutability": "nonpayable",
      "type": "function"
    },
    {
      "inputs": [
        {
          "internalType": "address",
          "name": "_vault",
          "type": "address"
        }
      ],
      "name": "setVault",
      "outputs": [],
      "stateMutability": "nonpayable",
      "type": "function"
    },
    {
      "inputs": [
        {
          "internalType": "address",
          "name": "_verifier",
          "type": "address"
        }
      ],
      "name": "setVerifier",
      "outputs": [],
      "stateMutability": "nonpayable",
      "type": "function"
    },
    {
      "inputs": [
        {
          "internalType": "address",
          "name": "newOwner",
          "type": "address"
        }
      ],
      "name": "transferOwnership",
      "outputs": [],
      "stateMutability": "nonpayable",
      "type": "function"
    },
    {
      "inputs": [],
      "name": "unlockStake",
      "outputs": [],
      "stateMutability": "nonpayable",
      "type": "function"
    },
    {
      "inputs": [
        {
          "components": [
            {
              "internalType": "address",
              "name": "sender",
              "type": "address"
            },
            {
              "internalType": "uint256",
              "name": "nonce",
              "type": "uint256"
            },
            {
              "internalType": "bytes",
              "name": "initCode",
              "type": "bytes"
            },
            {
              "internalType": "bytes",
              "name": "callData",
              "type": "bytes"
            },
            {
              "internalType": "bytes32",
              "name": "accountGasLimits",
              "type": "bytes32"
            },
            {
              "internalType": "uint256",
              "name": "preVerificationGas",
              "type": "uint256"
            },
            {
              "internalType": "bytes32",
              "name": "gasFees",
              "type": "bytes32"
            },
            {
              "internalType": "bytes",
              "name": "paymasterAndData",
              "type": "bytes"
            },
            {
              "internalType": "bytes",
              "name": "signature",
              "type": "bytes"
            }
          ],
          "internalType": "struct PackedUserOperation",
          "name": "userOp",
          "type": "tuple"
        },
        {
          "internalType": "bytes32",
          "name": "userOpHash",
          "type": "bytes32"
        },
        {
          "internalType": "uint256",
          "name": "maxCost",
          "type": "uint256"
        }
      ],
      "name": "validatePaymasterUserOp",
      "outputs": [
        {
          "internalType": "bytes",
          "name": "context",
          "type": "bytes"
        },
        {
          "internalType": "uint256",
          "name": "validationData",
          "type": "uint256"
        }
      ],
      "stateMutability": "nonpayable",
      "type": "function"
    },
    {
      "inputs": [],
      "name": "vault",
      "outputs": [
        {
          "internalType": "address",
          "name": "",
          "type": "address"
        }
      ],
      "stateMutability": "view",
      "type": "function"
    },
    {
      "inputs": [],
      "name": "verifier",
      "outputs": [
        {
          "internalType": "address",
          "name": "",
          "type": "address"
        }
      ],
      "stateMutability": "view",
      "type": "function"
    },
    {
      "inputs": [
        {
          "internalType": "address payable",
          "name": "withdrawAddress",
          "type": "address"
        }
      ],
      "name": "withdrawStake",
      "outputs": [],
      "stateMutability": "nonpayable",
      "type": "function"
    },
    {
      "inputs": [
        {
          "internalType": "address payable",
          "name": "withdrawAddress",
          "type": "address"
        },
        {
          "internalType": "uint256",
          "name": "amount",
          "type": "uint256"
        }
      ],
      "name": "withdrawTo",
      "outputs": [],
      "stateMutability": "nonpayable",
      "type": "function"
    }
  ],
  "bytecode": "0x60a06040523480156200001157600080fd5b50604051620018ed380380620018ed8339810160408190526200003491620001e5565b8133806200005d57604051631e4fbdf760e01b8152600060048201526024015b60405180910390fd5b6200006881620000bc565b5062000074816200010c565b6001600160a01b03166080526200008b81620000bc565b600180546001600160a01b039092166001600160a01b0319928316811790915560028054909216179055506200024f565b600080546001600160a01b038381166001600160a01b0319831681178455604051919092169283917f8be0079c531659141344cd1fd0a4f28419497f9722a3daafe3b4186f6b6457e09190a35050565b6040516301ffc9a760e01b815263122a0e9b60e31b60048201526001600160a01b038216906301ffc9a790602401602060405180830381865afa15801562000158573d6000803e3d6000fd5b505050506040513d601f19601f820116820180604052508101906200017e919062000224565b620001cc5760405162461bcd60e51b815260206004820152601e60248201527f49456e747279506f696e7420696e74657266616365206d69736d617463680000604482015260640162000054565b50565b6001600160a01b0381168114620001cc57600080fd5b60008060408385031215620001f957600080fd5b82516200020681620001cf565b60208401519092506200021981620001cf565b809150509250929050565b6000602082840312156200023757600080fd5b815180151581146200024857600080fd5b9392505050565b6080516116516200029c600039600081816102c0015281816103da01528181610471015281816105c801528181610662015281816106d20152818161075f015261086f01526116516000f3fe6080604052600436106101445760003560e01c806394d4ad60116100c0578063c399ec8811610074578063e38e46f211610059578063e38e46f214610358578063f2fde38b14610378578063fbfa77cf1461039857600080fd5b8063c399ec881461033b578063d0e30db01461035057600080fd5b8063b8202d8f116100a5578063b8202d8f146102e2578063bb9fe6bf14610306578063c23a5cea1461031b57600080fd5b806394d4ad601461027c578063b0d691fe146102ae57600080fd5b80635437988d11610117578063715018a6116100fc578063715018a6146102295780637c627b211461023e5780638da5cb5b1461025e57600080fd5b80635437988d146101e95780636817031b1461020957600080fd5b80630396cb6014610149578063205c28781461015e5780632b7ac3f31461017e57806352b7512c146101bb575b600080fd5b61015c6101573660046110d0565b6103b8565b005b34801561016a57600080fd5b5061015c61017936600461110b565b610443565b34801561018a57600080fd5b5060015461019e906001600160a01b031681565b6040516001600160a01b0390911681526020015b60405180910390f35b3480156101c757600080fd5b506101db6101d6366004611150565b6104b5565b6040516101b29291906111ee565b3480156101f557600080fd5b5061015c610204366004611210565b6104d9565b34801561021557600080fd5b5061015c610224366004611210565b610510565b34801561023557600080fd5b5061015c610547565b34801561024a57600080fd5b5061015c610259366004611276565b61055b565b34801561026a57600080fd5b506000546001600160a01b031661019e565b34801561028857600080fd5b5061029c6102973660046112e1565b610577565b6040516101b296959493929190611323565b3480156102ba57600080fd5b5061019e7f000000000000000000000000000000000000000000000000000000000000000081565b3480156102ee57600080fd5b506102f86188b881565b6040519081526020016101b2565b34801561031257600080fd5b5061015c6105be565b34801561032757600080fd5b5061015c610336366004611210565b61063b565b34801561034757600080fd5b506102f86106ba565b61015c61074a565b34801561036457600080fd5b506102f86103733660046113a1565b6107ac565b34801561038457600080fd5b5061015c610393366004611210565b6107f4565b3480156103a457600080fd5b5060025461019e906001600160a01b031681565b6103c0610837565b604051621cb65b60e51b815263ffffffff821660048201527f00000000000000000000000000000000000000000000000000000000000000006001600160a01b031690630396cb609034906024016000604051808303818588803b15801561042757600080fd5b505af115801561043b573d6000803e3d6000fd5b505050505050565b61044b610837565b60405163040b850f60e31b81526001600160a01b038381166004830152602482018390527f0000000000000000000000000000000000000000000000000000000000000000169063205c287890604401600060405180830381600087803b15801561042757600080fd5b606060006104c1610864565b6104cc8585856108dc565b915091505b935093915050565b6104e1610837565b6001805473ffffffffffffffffffffffffffffffffffffffff19166001600160a01b0392909216919091179055565b610518610837565b6002805473ffffffffffffffffffffffffffffffffffffffff19166001600160a01b0392909216919091179055565b61054f610837565b6105596000610acf565b565b610563610864565b6105708585858585610b2c565b5050505050565b6000808080368161058c60b46034898b61141a565b8101906105999190611444565b929850909650945092506105b08760b4818b61141a565b915091509295509295509295565b6105c6610837565b7f00000000000000000000000000000000000000000000000000000000000000006001600160a01b031663bb9fe6bf6040518163ffffffff1660e01b8152600401600060405180830381600087803b15801561062157600080fd5b505af1158015610635573d6000803e3d6000fd5b50505050565b610643610837565b60405163611d2e7560e11b81526001600160a01b0382811660048301527f0000000000000000000000000000000000000000000000000000000000000000169063c23a5cea90602401600060405180830381600087803b1580156106a657600080fd5b505af1158015610570573d6000803e3d6000fd5b6040516370a0823160e01b81523060048201526000907f00000000000000000000000000000000000000000000000000000000000000006001600160a01b0316906370a0823190602401602060405180830381865afa158015610721573d6000803e3d6000fd5b505050506040513d601f19601f820116820180604052508101906107459190611491565b905090565b60405163b760faf960e01b81523060048201527f00000000000000000000000000000000000000000000000000000000000000006001600160a01b03169063b760faf99034906024016000604051808303818588803b1580156106a657600080fd5b60006107b786610bfa565b4630878787876040516020016107d397969594939291906114aa565b60405160208183030381529060405280519060200120905095945050505050565b6107fc610837565b6001600160a01b03811661082b57604051631e4fbdf760e01b8152600060048201526024015b60405180910390fd5b61083481610acf565b50565b6000546001600160a01b031633146105595760405163118cdaa760e01b8152336004820152602401610822565b336001600160a01b037f000000000000000000000000000000000000000000000000000000000000000016146105595760405162461bcd60e51b815260206004820152601560248201527f53656e646572206e6f7420456e747279506f696e7400000000000000000000006044820152606401610822565b606060008080808036816108f661029760e08d018d611501565b95509550955095509550955081819050604014806109145750604181145b610988576040805162461bcd60e51b81526020600482015260248101919091527f566572696679696e675061796d61737465723a20696e76616c6964207369676e60448201527f6174757265206c656e67746820696e207061796d6173746572416e64446174616064820152608401610822565b60006109cd61099a8d898989896107ac565b7f19457468657265756d205369676e6564204d6573736167653a0a3332000000006000908152601c91909152603c902090565b604080516020810190915260008152995090506001600160a01b03851615610a3d576109fc60208d018d611210565b604080516001600160a01b039283166020820152918716908201526060810185905260c08d0135608082015260a00160405160208183030381529060405298505b610a7d8184848080601f016020809104026020016040519081016040528093929190818152602001838380828437600092019190915250610c8a92505050565b6001546001600160a01b03908116911614610aaf5788610a9f60018989610cb6565b98509850505050505050506104d1565b88610abc60008989610cb6565b9850985050505050505050935093915050565b600080546001600160a01b0383811673ffffffffffffffffffffffffffffffffffffffff19831681178455604051919092169283917f8be0079c531659141344cd1fd0a4f28419497f9722a3daafe3b4186f6b6457e09190a35050565b6000808080610b3d87890189611548565b92965090945092509050608081901c6fffffffffffffffffffffffffffffffff82166000828203610b6f575080610b7e565b610b7b82488501610cf0565b90505b6000670de0b6b3a764000086610b96846188b86115a4565b610ba0908d6115bb565b610baa91906115a4565b610bb491906115ce565b905060028d6002811115610bca57610bca6115f0565b14610beb57600254610beb906001600160a01b03898116918b911684610d06565b50505050505050505050505050565b606081356020830135610c18610c136040860186611501565b610d75565b610c28610c136060870187611501565b604080516001600160a01b039095166020860152840192909252606083015260808281019190915283013560a08281019190915283013560c08281019190915283013560e0820152610100016040516020818303038152906040529050919050565b600080600080610c9a8686610d88565b925092509250610caa8282610dd5565b50909150505b92915050565b600060d08265ffffffffffff16901b60a08465ffffffffffff16901b85610cde576000610ce1565b60015b60ff16171790505b9392505050565b6000818310610cff5781610ce9565b5090919050565b604080516001600160a01b0385811660248301528416604482015260648082018490528251808303909101815260849091019091526020810180517bffffffffffffffffffffffffffffffffffffffffffffffffffffffff166323b872dd60e01b179052610635908590610e92565b6000604051828085833790209392505050565b60008060008351604103610dc25760208401516040850151606086015160001a610db488828585610efa565b955095509550505050610dce565b50508151600091506002905b9250925092565b6000826003811115610de957610de96115f0565b03610df2575050565b6001826003811115610e0657610e066115f0565b03610e245760405163f645eedf60e01b815260040160405180910390fd5b6002826003811115610e3857610e386115f0565b03610e595760405163fce698f760e01b815260048101829052602401610822565b6003826003811115610e6d57610e6d6115f0565b03610e8e576040516335e2f38360e21b815260048101829052602401610822565b5050565b6000610ea76001600160a01b03841683610fc9565b90508051600014158015610ecc575080806020019051810190610eca9190611606565b155b15610ef557604051635274afe760e01b81526001600160a01b0384166004820152602401610822565b505050565b600080807f7fffffffffffffffffffffffffffffff5d576e7357a4501ddfe92f46681b20a0841115610f355750600091506003905082610fbf565b604080516000808252602082018084528a905260ff891692820192909252606081018790526080810186905260019060a0016020604051602081039080840390855afa158015610f89573d6000803e3d6000fd5b5050604051601f1901519150506001600160a01b038116610fb557506000925060019150829050610fbf565b9250600091508190505b9450945094915050565b6060610ce98383600084600080856001600160a01b03168486604051610fef9190611628565b60006040518083038185875af1925050503d806000811461102c576040519150601f19603f3d011682016040523d82523d6000602084013e611031565b606091505b509150915061104186838361104b565b9695505050505050565b6060826110605761105b826110a7565b610ce9565b815115801561107757506001600160a01b0384163b155b156110a057604051639996b31560e01b81526001600160a01b0385166004820152602401610822565b5080610ce9565b8051156110b75780518082602001fd5b604051630a12f52160e11b815260040160405180910390fd5b6000602082840312156110e257600080fd5b813563ffffffff81168114610ce957600080fd5b6001600160a01b038116811461083457600080fd5b6000806040838503121561111e57600080fd5b8235611129816110f6565b946020939093013593505050565b6000610120828403121561114a57600080fd5b50919050565b60008060006060848603121561116557600080fd5b833567ffffffffffffffff81111561117c57600080fd5b61118886828701611137565b9660208601359650604090950135949350505050565b60005b838110156111b95781810151838201526020016111a1565b50506000910152565b600081518084526111da81602086016020860161119e565b601f01601f19169290920160200192915050565b60408152600061120160408301856111c2565b90508260208301529392505050565b60006020828403121561122257600080fd5b8135610ce9816110f6565b60008083601f84011261123f57600080fd5b50813567ffffffffffffffff81111561125757600080fd5b60208301915083602082850101111561126f57600080fd5b9250929050565b60008060008060006080868803121561128e57600080fd5b85356003811061129d57600080fd5b9450602086013567ffffffffffffffff8111156112b957600080fd5b6112c58882890161122d565b9699909850959660408101359660609091013595509350505050565b600080602083850312156112f457600080fd5b823567ffffffffffffffff81111561130b57600080fd5b6113178582860161122d565b90969095509350505050565b600065ffffffffffff80891683528088166020840152506001600160a01b038616604083015284606083015260a060808301528260a0830152828460c0840137600060c0848401015260c0601f19601f8501168301019050979650505050505050565b803565ffffffffffff8116811461139c57600080fd5b919050565b600080600080600060a086880312156113b957600080fd5b853567ffffffffffffffff8111156113d057600080fd5b6113dc88828901611137565b9550506113eb60208701611386565b93506113f960408701611386565b92506060860135611409816110f6565b949793965091946080013592915050565b6000808585111561142a57600080fd5b8386111561143757600080fd5b5050820193919092039150565b6000806000806080858703121561145a57600080fd5b61146385611386565b935061147160208601611386565b92506040850135611481816110f6565b9396929550929360600135925050565b6000602082840312156114a357600080fd5b5051919050565b60e0815260006114bd60e083018a6111c2565b6020830198909852506001600160a01b03958616604082015265ffffffffffff948516606082015292909316608083015290921660a083015260c090910152919050565b6000808335601e1984360301811261151857600080fd5b83018035915067ffffffffffffffff82111561153357600080fd5b60200191503681900382131561126f57600080fd5b6000806000806080858703121561155e57600080fd5b8435611569816110f6565b93506020850135611579816110f6565b93969395505050506040820135916060013590565b634e487b7160e01b600052601160045260246000fd5b8082028115828204841417610cb057610cb061158e565b80820180821115610cb057610cb061158e565b6000826115eb57634e487b7160e01b600052601260045260246000fd5b500490565b634e487b7160e01b600052602160045260246000fd5b60006020828403121561161857600080fd5b81518015158114610ce957600080fd5b6000825161163a81846020870161119e565b919091019291505056fea164736f6c6343000817000a",
  "linkReferences": {},
  "deployedLinkReferences": {}
}